{
  "contractName": "DRealEstate",
  "abi": [
    {
      "inputs": [],
      "payable": false,
      "stateMutability": "nonpayable",
      "type": "constructor"
    },
    {
      "constant": true,
      "inputs": [
        {
          "internalType": "uint256",
          "name": "",
          "type": "uint256"
        }
      ],
      "name": "landrecords",
      "outputs": [
        {
          "internalType": "uint256",
          "name": "plotId",
          "type": "uint256"
        },
        {
          "internalType": "uint256",
          "name": "areaCode",
          "type": "uint256"
        },
        {
          "internalType": "uint256",
          "name": "length",
          "type": "uint256"
        },
        {
          "internalType": "uint256",
          "name": "breadth",
          "type": "uint256"
        },
        {
          "internalType": "string",
          "name": "landAddress",
          "type": "string"
        },
        {
          "internalType": "bool",
          "name": "forsale",
          "type": "bool"
        },
        {
          "internalType": "uint256",
          "name": "price",
          "type": "uint256"
        },
        {
          "internalType": "address payable",
          "name": "currentOwner",
          "type": "address"
        },
        {
          "internalType": "enum DRealEstate.verificationStatus",
          "name": "vs",
          "type": "uint8"
        },
        {
          "internalType": "bool",
          "name": "isVerified",
          "type": "bool"
        },
        {
          "internalType": "string",
          "name": "docHash",
          "type": "string"
        }
      ],
      "payable": false,
      "stateMutability": "view",
      "type": "function"
    },
    {
      "constant": true,
      "inputs": [],
      "name": "owner",
      "outputs": [
        {
          "internalType": "address",
          "name": "",
          "type": "address"
        }
      ],
      "payable": false,
      "stateMutability": "view",
      "type": "function"
    },
    {
      "constant": true,
      "inputs": [],
      "name": "plotcount",
      "outputs": [
        {
          "internalType": "uint256",
          "name": "",
          "type": "uint256"
        }
      ],
      "payable": false,
      "stateMutability": "view",
      "type": "function"
    },
    {
      "constant": false,
      "inputs": [
        {
          "internalType": "uint256",
          "name": "_areaCode",
          "type": "uint256"
        },
        {
          "internalType": "uint256",
          "name": "_length",
          "type": "uint256"
        },
        {
          "internalType": "uint256",
          "name": "_breadth",
          "type": "uint256"
        },
        {
          "internalType": "string",
          "name": "_landAddress",
          "type": "string"
        },
        {
          "internalType": "uint256",
          "name": "_price",
          "type": "uint256"
        },
        {
          "internalType": "string",
          "name": "_docHash",
          "type": "string"
        }
      ],
      "name": "registerLand",
      "outputs": [
        {
          "internalType": "uint256",
          "name": "",
          "type": "uint256"
        }
      ],
      "payable": false,
      "stateMutability": "nonpayable",
      "type": "function"
    },
    {
      "constant": false,
      "inputs": [
        {
          "internalType": "uint256",
          "name": "_plotId",
          "type": "uint256"
        }
      ],
      "name": "approveLandRecord",
      "outputs": [],
      "payable": false,
      "stateMutability": "nonpayable",
      "type": "function"
    },
    {
      "constant": false,
      "inputs": [
        {
          "internalType": "uint256",
          "name": "_plotId",
          "type": "uint256"
        }
      ],
      "name": "rejectLandRecord",
      "outputs": [],
      "payable": false,
      "stateMutability": "nonpayable",
      "type": "function"
    },
    {
      "constant": false,
      "inputs": [
        {
          "internalType": "uint256",
          "name": "_plotId",
          "type": "uint256"
        }
      ],
      "name": "buyLand",
      "outputs": [],
      "payable": true,
      "stateMutability": "payable",
      "type": "function"
    },
    {
      "constant": false,
      "inputs": [
        {
          "internalType": "uint256",
          "name": "_plotId",
          "type": "uint256"
        },
        {
          "internalType": "address payable",
          "name": "newOwner",
          "type": "address"
        }
      ],
      "name": "buyLandWithoutEther",
      "outputs": [],
      "payable": true,
      "stateMutability": "payable",
      "type": "function"
    },
    {
      "constant": false,
      "inputs": [
        {
          "internalType": "uint256",
          "name": "_plotId",
          "type": "uint256"
        }
      ],
      "name": "landForSale",
      "outputs": [],
      "payable": false,
      "stateMutability": "nonpayable",
      "type": "function"
    },
    {
      "constant": false,
      "inputs": [
        {
          "internalType": "uint256",
          "name": "_plotId",
          "type": "uint256"
        }
      ],
      "name": "landNotForSale",
      "outputs": [],
      "payable": false,
      "stateMutability": "nonpayable",
      "type": "function"
    }
  ],
  "bytecode": "0x608060405234801561001057600080fd5b50336000806101000a81548173ffffffffffffffffffffffffffffffffffffffff021916908373ffffffffffffffffffffffffffffffffffffffff1602179055506118ff806100606000396000f3fe6080604052600436106100915760003560e01c8063c751218411610059578063c75121841461032f578063ced39558146104ca578063dcedb6b3146104f8578063e70fc95c14610533578063f60955b51461058157610091565b80633134e3ff146100965780634d92e235146100d157806362721a96146100fc5780637d0f379a1461029d5780638da5cb5b146102d8575b600080fd5b3480156100a257600080fd5b506100cf600480360360208110156100b957600080fd5b81019080803590602001909291905050506105bc565b005b3480156100dd57600080fd5b506100e66106c5565b6040518082815260200191505060405180910390f35b34801561010857600080fd5b506101356004803603602081101561011f57600080fd5b81019080803590602001909291905050506106cb565b604051808c81526020018b81526020018a815260200189815260200180602001881515151581526020018781526020018673ffffffffffffffffffffffffffffffffffffffff1673ffffffffffffffffffffffffffffffffffffffff1681526020018560028111156101a357fe5b60ff168152602001841515151581526020018060200183810383528a818151815260200191508051906020019080838360005b838110156101f15780820151818401526020810190506101d6565b50505050905090810190601f16801561021e5780820380516001836020036101000a031916815260200191505b50838103825284818151815260200191508051906020019080838360005b8381101561025757808201518184015260208101905061023c565b50505050905090810190601f1680156102845780820380516001836020036101000a031916815260200191505b509d505050505050505050505050505060405180910390f35b3480156102a957600080fd5b506102d6600480360360208110156102c057600080fd5b810190808035906020019092919050505061089c565b005b3480156102e457600080fd5b506102ed6109a5565b604051808273ffffffffffffffffffffffffffffffffffffffff1673ffffffffffffffffffffffffffffffffffffffff16815260200191505060405180910390f35b34801561033b57600080fd5b506104b4600480360360c081101561035257600080fd5b810190808035906020019092919080359060200190929190803590602001909291908035906020019064010000000081111561038d57600080fd5b82018360208201111561039f57600080fd5b803590602001918460018302840111640100000000831117156103c157600080fd5b91908080601f016020809104026020016040519081016040528093929190818152602001838380828437600081840152601f19601f820116905080830192505050505050509192919290803590602001909291908035906020019064010000000081111561042e57600080fd5b82018360208201111561044057600080fd5b8035906020019184600183028401116401000000008311171561046257600080fd5b91908080601f016020809104026020016040519081016040528093929190818152602001838380828437600081840152601f19601f8201169050808301925050505050505091929192905050506109ca565b6040518082815260200191505060405180910390f35b6104f6600480360360208110156104e057600080fd5b8101908080359060200190929190505050610bd0565b005b34801561050457600080fd5b506105316004803603602081101561051b57600080fd5b81019080803590602001909291905050506110e7565b005b61057f6004803603604081101561054957600080fd5b8101908080359060200190929190803573ffffffffffffffffffffffffffffffffffffffff16906020019092919050505061117a565b005b34801561058d57600080fd5b506105ba600480360360208110156105a457600080fd5b8101908080359060200190929190505050611692565b005b3373ffffffffffffffffffffffffffffffffffffffff166002600083815260200190815260200160002060070160009054906101000a900473ffffffffffffffffffffffffffffffffffffffff1673ffffffffffffffffffffffffffffffffffffffff1614610693576040517f08c379a000000000000000000000000000000000000000000000000000000000815260040180806020018281038252601b8152602001807f4f6e6c79206c616e64206f776e65722063616e2063616c6c206974000000000081525060200191505060405180910390fd5b60016002600083815260200190815260200160002060050160006101000a81548160ff02191690831515021790555050565b60015481565b6002602052806000526040600020600091509050806000015490806001015490806002015490806003015490806004018054600181600116156101000203166002900480601f01602080910402602001604051908101604052809291908181526020018280546001816001161561010002031660029004801561078f5780601f106107645761010080835404028352916020019161078f565b820191906000526020600020905b81548152906001019060200180831161077257829003601f168201915b5050505050908060050160009054906101000a900460ff16908060060154908060070160009054906101000a900473ffffffffffffffffffffffffffffffffffffffff16908060070160149054906101000a900460ff16908060070160159054906101000a900460ff1690806008018054600181600116156101000203166002900480601f0160208091040260200160405190810160405280929190818152602001828054600181600116156101000203166002900480156108925780601f1061086757610100808354040283529160200191610892565b820191906000526020600020905b81548152906001019060200180831161087557829003601f168201915b505050505090508b565b3373ffffffffffffffffffffffffffffffffffffffff166002600083815260200190815260200160002060070160009054906101000a900473ffffffffffffffffffffffffffffffffffffffff1673ffffffffffffffffffffffffffffffffffffffff1614610973576040517f08c379a000000000000000000000000000000000000000000000000000000000815260040180806020018281038252601b8152602001807f4f6e6c79206c616e64206f776e65722063616e2063616c6c206974000000000081525060200191505060405180910390fd5b60006002600083815260200190815260200160002060050160006101000a81548160ff02191690831515021790555050565b6000809054906101000a900473ffffffffffffffffffffffffffffffffffffffff1681565b600060016000815480929190600101919050555060015460026000600154815260200190815260200160002060000181905550866002600060015481526020019081526020016000206001018190555085600260006001548152602001908152602001600020600201819055508460026000600154815260200190815260200160002060030181905550836002600060015481526020019081526020016000206004019080519060200190610a80929190611726565b50600160026000600154815260200190815260200160002060050160006101000a81548160ff02191690831515021790555082600260006001548152602001908152602001600020600601819055503360026000600154815260200190815260200160002060070160006101000a81548173ffffffffffffffffffffffffffffffffffffffff021916908373ffffffffffffffffffffffffffffffffffffffff160217905550816002600060015481526020019081526020016000206008019080519060200190610b52929190611726565b50600360003373ffffffffffffffffffffffffffffffffffffffff1673ffffffffffffffffffffffffffffffffffffffff168152602001908152602001600020600001600154908060018154018082558091505090600182039060005260206000200160009091929091909150555060015490509695505050505050565b610bd86117a6565b600260008381526020019081526020016000206040518061016001604052908160008201548152602001600182015481526020016002820154815260200160038201548152602001600482018054600181600116156101000203166002900480601f016020809104026020016040519081016040528092919081815260200182805460018160011615610100020316600290048015610cb85780601f10610c8d57610100808354040283529160200191610cb8565b820191906000526020600020905b815481529060010190602001808311610c9b57829003601f168201915b505050505081526020016005820160009054906101000a900460ff16151515158152602001600682015481526020016007820160009054906101000a900473ffffffffffffffffffffffffffffffffffffffff1673ffffffffffffffffffffffffffffffffffffffff1673ffffffffffffffffffffffffffffffffffffffff1681526020016007820160149054906101000a900460ff166002811115610d5a57fe5b6002811115610d6557fe5b81526020016007820160159054906101000a900460ff16151515158152602001600882018054600181600116156101000203166002900480601f016020809104026020016040519081016040528092919081815260200182805460018160011615610100020316600290048015610e1d5780601f10610df257610100808354040283529160200191610e1d565b820191906000526020600020905b815481529060010190602001808311610e0057829003601f168201915b50505050508152505090508060a00151610e9f576040517f08c379a00000000000000000000000000000000000000000000000000000000081526004018080602001828103825260118152602001807f6c616e64206e6f7420666f722073616c6500000000000000000000000000000081525060200191505060405180910390fd5b348160c001511115610f19576040517f08c379a00000000000000000000000000000000000000000000000000000000081526004018080602001828103825260138152602001807f696e737566666963656e742062616c616e63650000000000000000000000000081525060200191505060405180910390fd5b8060e0015173ffffffffffffffffffffffffffffffffffffffff166108fc349081150290604051600060405180830381858888f19350505050158015610f63573d6000803e3d6000fd5b50338160e0019073ffffffffffffffffffffffffffffffffffffffff16908173ffffffffffffffffffffffffffffffffffffffff168152505060008160a00190151590811515815250508060026000848152602001908152602001600020600082015181600001556020820151816001015560408201518160020155606082015181600301556080820151816004019080519060200190611005929190611825565b5060a08201518160050160006101000a81548160ff02191690831515021790555060c0820151816006015560e08201518160070160006101000a81548173ffffffffffffffffffffffffffffffffffffffff021916908373ffffffffffffffffffffffffffffffffffffffff1602179055506101008201518160070160146101000a81548160ff0219169083600281111561109c57fe5b02179055506101208201518160070160156101000a81548160ff0219169083151502179055506101408201518160080190805190602001906110df929190611825565b509050505050565b6000809054906101000a900473ffffffffffffffffffffffffffffffffffffffff1673ffffffffffffffffffffffffffffffffffffffff163373ffffffffffffffffffffffffffffffffffffffff161461114057600080fd5b600280600083815260200190815260200160002060070160146101000a81548160ff0219169083600281111561117257fe5b021790555050565b6111826117a6565b600260008481526020019081526020016000206040518061016001604052908160008201548152602001600182015481526020016002820154815260200160038201548152602001600482018054600181600116156101000203166002900480601f0160208091040260200160405190810160405280929190818152602001828054600181600116156101000203166002900480156112625780601f1061123757610100808354040283529160200191611262565b820191906000526020600020905b81548152906001019060200180831161124557829003601f168201915b505050505081526020016005820160009054906101000a900460ff16151515158152602001600682015481526020016007820160009054906101000a900473ffffffffffffffffffffffffffffffffffffffff1673ffffffffffffffffffffffffffffffffffffffff1673ffffffffffffffffffffffffffffffffffffffff1681526020016007820160149054906101000a900460ff16600281111561130457fe5b600281111561130f57fe5b81526020016007820160159054906101000a900460ff16151515158152602001600882018054600181600116156101000203166002900480601f0160208091040260200160405190810160405280929190818152602001828054600181600116156101000203166002900480156113c75780601f1061139c576101008083540402835291602001916113c7565b820191906000526020600020905b8154815290600101906020018083116113aa57829003601f168201915b50505050508152505090508060a00151611449576040517f08c379a00000000000000000000000000000000000000000000000000000000081526004018080602001828103825260118152602001807f6c616e64206e6f7420666f722073616c6500000000000000000000000000000081525060200191505060405180910390fd5b348160c0015111156114c3576040517f08c379a00000000000000000000000000000000000000000000000000000000081526004018080602001828103825260138152602001807f696e737566666963656e742062616c616e63650000000000000000000000000081525060200191505060405180910390fd5b8060e0015173ffffffffffffffffffffffffffffffffffffffff166108fc349081150290604051600060405180830381858888f1935050505015801561150d573d6000803e3d6000fd5b50818160e0019073ffffffffffffffffffffffffffffffffffffffff16908173ffffffffffffffffffffffffffffffffffffffff168152505060008160a001901515908115158152505080600260008581526020019081526020016000206000820151816000015560208201518160010155604082015181600201556060820151816003015560808201518160040190805190602001906115af929190611825565b5060a08201518160050160006101000a81548160ff02191690831515021790555060c0820151816006015560e08201518160070160006101000a81548173ffffffffffffffffffffffffffffffffffffffff021916908373ffffffffffffffffffffffffffffffffffffffff1602179055506101008201518160070160146101000a81548160ff0219169083600281111561164657fe5b02179055506101208201518160070160156101000a81548160ff021916908315150217905550610140820151816008019080519060200190611689929190611825565b50905050505050565b6000809054906101000a900473ffffffffffffffffffffffffffffffffffffffff1673ffffffffffffffffffffffffffffffffffffffff163373ffffffffffffffffffffffffffffffffffffffff16146116eb57600080fd5b60016002600083815260200190815260200160002060070160146101000a81548160ff0219169083600281111561171e57fe5b021790555050565b828054600181600116156101000203166002900490600052602060002090601f016020900481019282601f1061176757805160ff1916838001178555611795565b82800160010185558215611795579182015b82811115611794578251825591602001919060010190611779565b5b5090506117a291906118a5565b5090565b604051806101600160405280600081526020016000815260200160008152602001600081526020016060815260200160001515815260200160008152602001600073ffffffffffffffffffffffffffffffffffffffff1681526020016000600281111561180f57fe5b8152602001600015158152602001606081525090565b828054600181600116156101000203166002900490600052602060002090601f016020900481019282601f1061186657805160ff1916838001178555611894565b82800160010185558215611894579182015b82811115611893578251825591602001919060010190611878565b5b5090506118a191906118a5565b5090565b6118c791905b808211156118c35760008160009055506001016118ab565b5090565b9056fea265627a7a72315820f93c47b9521071e7ba3aeacd9d432cdb3cde86cd7b4abaf17eae46c14ec2bc8264736f6c63430005100032",
  "source": "pragma solidity ^0.5.0;\n\ncontract DRealEstate {\n\n    struct LandRecord {\n        uint plotId;\n        uint areaCode;\n        uint length;\n        uint breadth;\n        string landAddress;\n        bool forsale;\n        uint price;\n        address payable currentOwner;\n        verificationStatus vs;\n        bool isVerified;\n        string docHash;\n        \n    }\n\n    struct UserRecords {\n        uint[] assetList;\n    }\n    \n    //request status\n    enum verificationStatus {pending,reject,approved}\n    \n    constructor () public {\n        owner = msg.sender;\n    }\n    \n    modifier onlyOwner {\n        require(msg.sender == owner);\n        _;\n    }\n     \n    address public owner;\n    uint public plotcount;\n    mapping(uint=> LandRecord) public landrecords;\n    mapping(address => UserRecords)  userRecords;\n    \n    \n    //registering land records\n    function registerLand(\n        uint _areaCode,\n        uint _length,\n        uint _breadth,\n        string memory _landAddress,\n        uint _price, string memory _docHash) public returns(uint ) {\n\n            plotcount++;\n            \n            landrecords[plotcount].plotId=plotcount;\n            landrecords[plotcount].areaCode=_areaCode;\n            landrecords[plotcount].length=_length;\n            landrecords[plotcount].breadth=_breadth;\n            landrecords[plotcount].landAddress=_landAddress;\n            landrecords[plotcount].forsale=true;\n            landrecords[plotcount].price=_price;\n            landrecords[plotcount].currentOwner=msg.sender;\n            landrecords[plotcount].docHash=_docHash;\n            userRecords[msg.sender].assetList.push(plotcount);\n            return plotcount;\n        }\n        \n    function approveLandRecord(uint _plotId) public onlyOwner {\n        landrecords[_plotId].vs = verificationStatus.approved;\n        \n    }\n    function rejectLandRecord(uint _plotId) public onlyOwner {\n        landrecords[_plotId].vs = verificationStatus.reject;\n        \n    }\n    \n    function buyLand(uint _plotId) public payable {\n\n        LandRecord memory _record = landrecords[_plotId];\n        \n       require(_record.forsale,\"land not for sale\");\n        require(_record.price<=msg.value,\"insufficent balance\");\n        address(_record.currentOwner).transfer(msg.value);\n        _record.currentOwner=msg.sender;\n        _record.forsale=false;\n        landrecords[_plotId]=_record;\n        \n    }\n    function buyLandWithoutEther(uint _plotId, address payable newOwner) public payable {\n\n        LandRecord memory _record = landrecords[_plotId];\n        \n       require(_record.forsale,\"land not for sale\");\n        require(_record.price<=msg.value,\"insufficent balance\");\n        address(_record.currentOwner).transfer(msg.value);\n        _record.currentOwner=newOwner;\n        _record.forsale=false;\n        landrecords[_plotId]=_record;\n        \n    }\n\n    function landForSale(uint _plotId) public {\n        require(landrecords[_plotId].currentOwner==msg.sender,\"Only land owner can call it\");\n        landrecords[_plotId].forsale=true;\n\n    }\n\n    function landNotForSale(uint _plotId) public {\n        require(landrecords[_plotId].currentOwner==msg.sender,\"Only land owner can call it\");\n        landrecords[_plotId].forsale=false;\n\n    }\n        \n        \n    \n}",
  "sourcePath": "/home/zero/mal/DRealEstate/src/contracts/DRealEstate.sol",
  "compiler": {
    "name": "solc",
    "version": "0.5.16+commit.9c3226ce.Emscripten.clang"
  },
  "schemaVersion": "3.3.0",
  "updatedAt": "2021-03-21T23:59:54.683Z",
  "networkType": "ethereum",
  "devdoc": {
    "methods": {}
  },
  "userdoc": {
    "methods": {}
  }
}